:100000000C942A000C943C000C943C000C943C0092
:100010000C943C000C943C000C943C000C943C0070
:100020000C943C000C943C000C943C000C94960501
:100030000C943C000C9464050C943C000C943C0023
:100040000C943C000C943C000C943C000C943C0040
:100050000C943C0011241FBECFE5D8E0DEBFCDBF1D
:1000600021E0A0E6B0E001C01D92A239B207E1F79D
:100070000E94A6030C94EB050C94000016161706BC
:100080003CF4FC01860F971F1192E817F907E1F77E
:100090000895C49ABC9A8DB181618DB96E9A87B367
:1000A000806A87BB08958FB9779BFECF8FB1089583
:1000B00010BC8CE089B986E880BD88E98AB90895CA
:1000C0005D9BFECF8CB90895EF92FF920F931F9323
:1000D000CF93DF937B011616170654F4EC018C01C5
:1000E000060F171F89910E946000C017D107D1F732
:1000F000C701DF91CF911F910F91FF90EF9008956D
:10010000C3980895C39A0895CF93DF93CDB7DEB710
:10011000C054D1090FB6F894DEBF0FBECDBF60E466
:1001200070E0CE0101960E943E000E94800080E0B7
:100130000E94530082E00E94530082E00E9453001C
:1001400081E00E94530089E00E9453000E948200D7
:100150000E9480008981883051F083E00E94530022
:1001600083E00E945300887F89838830B1F70E9422
:1001700082000E94800082E00E9453008FEF0E9464
:10018000530089838FEF0E9453008A830E9482006C
:100190008981811107C081E090E02A81222321F02A
:1001A00080E002C080E090E0C05CDF4F0FB6F894C2
:1001B000DEBF0FBECDBFDF91CF910895CF92DF920A
:1001C000EF92FF920F931F93CF93DF93CDB7DEB7DC
:1001D000C054D1090FB6F894DEBF0FBECDBFD82EE4
:1001E000C92E60E470E0CE0101960E943E000E949C
:1001F000800080E00E94530084E00E94530083E06E
:100200000E94530086E20E94530081E00E94530046
:1002100080E00E9453000E9482000E948000898139
:10022000883051F083E00E94530083E00E94530025
:10023000887F89838830B1F70E9482000E94800005
:1002400082E00E9453008FEF0E94530089838FEF5A
:100250000E9453008A83882359F199F07E0183E03C
:10026000E80EF11C00E010E08FEF0E945300F70150
:1002700081937F010F5F1F4F8A8190E00817190754
:100280009CF30E9482008981803879F4FE013D96BA
:10029000AD2DBC2D9E012B5F3F4F82918D932E176C
:1002A0003F07D9F781E090E00AC080E090E007C006
:1002B0000E9482008981803849F380E090E0C05C30
:1002C000DF4F0FB6F894DEBF0FBECDBFDF91CF91E9
:1002D0001F910F91FF90EF90DF90CF900895EF92D4
:1002E000FF920F931F93CF93DF93CDB7DEB7C05428
:1002F000D1090FB6F894DEBF0FBECDBF60E470E049
:10030000CE0101960E943E000E94800080E00E9483
:10031000530081E00E94530080E00E9453000E943D
:1003200082000E9480008981883051F083E00E9421
:10033000530083E00E945300887F89838830B1F79F
:100340000E9482000E94800082E00E9453008FEF92
:100350000E94530089838FEF0E9453008A83882371
:1003600099F07E0183E0E80EF11C00E010E08FEFD1
:100370000E945300F70181937F010F5F1F4F8A8115
:1003800090E0081719079CF30E94820081E090E03A
:100390002981222311F080E090E0C05CDF4F0FB68E
:1003A000F894DEBF0FBECDBFDF91CF911F910F91AB
:1003B000FF90EF9008956F927F928F929F92AF92ED
:1003C000BF92CF92DF92EF92FF920F931F93CF9342
:1003D000DF93CDB7DEB7C054D1090FB6F894DEBFB6
:1003E0000FBECDBF4C018B016DB67EB660E470E0F0
:1003F000CE0101960E943E00C80183709927892B87
:1004000059F4580111231CF423E0A20EB11CB59439
:10041000A794B594A7940CC0C80111230CF40396BB
:1004200095958795959587955C013FEFA31AB30A3B
:10043000C501880F991F880F991F880F991FEDB765
:10044000FEB7E81BF90B0FB6F894FEBF0FBEEDBF69
:1004500031961A141B040CF090C06F0140E050E07C
:10046000E12CF12C18C0E016F10654F4D401AE0DC5
:10047000BF1D8C9190E0918380838FEFE81AF80A7A
:100480003296E217F30779F74F5F5F4FF901A41631
:10049000B50609F469C09F01285F3F4FE4CF0E9471
:1004A000800080E00E94530084E00E94530087E0B7
:1004B0000E94530082E00E94530081E20E94530098
:1004C000882D0E945300F60180810E945300F6019E
:1004D00082810E945300F60184810E945300F6013C
:1004E00086810E9453000E9482000E9480008981C0
:1004F000883051F083E00E94530083E00E94530053
:10050000887F89838830B1F70E9482000E94800032
:1005100082E00E9453008FEF0E94530089838FEF87
:100520000E9453008A83882371F000E010E08FEF6F
:100530000E945300F70180830F5F1F4F8A8190E074
:1005400008171907A4F30E9482008981803809F0F6
:10055000A6CFFFEF8F1A9F0A28E0C20ED11CA81465
:10056000B90409F09CCF09C0812C912C83E090E064
:100570008C0F9D1FE80EF91E92CF81E090E00FB620
:10058000F8947EBE0FBE6DBEC05CDF4F0FB6F89410
:10059000DEBF0FBECDBFDF91CF911F910F91FF90B6
:1005A000EF90DF90CF90BF90AF909F908F907F9013
:1005B0006F900895EF92FF920F931F93CF93DF9365
:1005C0008C01C42F0E94800080E00E94530084E0D0
:1005D0000E94530084E00E94530082E00E94530076
:1005E00083E20E9453008C2F0E9453008CE30E94F0
:1005F00053000E9482000E94800083E00E9453000A
:1006000083E00E945300887F8830B9F715C08FEFD0
:100610000E94530089930C171D07C9F70E9482009E
:1006200081E090E020E8E216E1F080E090E019C07F
:10063000E8010F0D111DEBCF0E9482000E94800087
:1006400082E00E9453008FEF0E945300E82E8FEF4C
:100650000E945300F82E8FEF0E945300FF20F1F20A
:10066000E7CFDF91CF911F910F91FF90EF90089509
:100670008C9AA39AD19A949AAB9AD99A0895BA9AD5
:10068000C29A2FEF80E792E0215080409040E1F73E
:1006900000C0000088B388BB8FEC97E00197F1F7AA
:1006A00000C00000C29A089518161906DCF420E074
:1006B00030E0D9984FEF52E567E04150504060403C
:1006C000E1F700C00000D99A4FEF50E762E04150D7
:1006D00050406040E1F700C000002F5F3F4F82179D
:1006E000930739F70895FB01DC019B01245C3F4F20
:1006F00081918D93E217F307D9F7089583E083BFC3
:1007000083E882BF089514161506BCF4FC013081FD
:10071000FB012081321314C0FC013196DB011196DC
:10072000480F591F04C021919D9129130CC0E41753
:10073000F507C9F781E090E0089581E090E0089521
:1007400080E090E0089580E090E008952FEF89E642
:1007500098E1215080409040E1F700C000000E94E5
:100760003F030E944900BB9A0E9438030E94580030
:100770000E947E03789401E010E0D02FC12F809179
:10078000680090916900019709F0C0C00E946F0154
:100790000E94840064E570E08CEF90E00E943E00CF
:1007A00040E06CE370E08CEF90E00E94DA02019789
:1007B00099F46CE370E08CEF90E00E9464001816EE
:1007C000190654F49498AB9A82E090E00E94540386
:1007D0001092690010926800809166009091670005
:1007E000019709F08AC0AB980E9484008EEA90E0DD
:1007F0000E94DE0029B7216029BF892B09F028C19A
:100800008091620090916300883C91050CF02BC1AF
:100810008EEA90E00E94DE00892B09F019C18091D8
:10082000620090916300883C910594F31CC1D093C1
:100830006400C09365001092630010926200809182
:10084000640090916500019709F453C089B78160F5
:1008500089BF80916200909163004E970CF012C1A5
:1008600066E470E086EB90E00E943E006EE670E089
:1008700086EB90E00E9473036CE370E086EB90E0FF
:100880000E94DB010E94840064E570E08CEF90E040
:100890000E943E0040E06CE370E08CEF90E00E942C
:1008A000DA024CE350E06CEF70E086EB90E00E94DF
:1008B0008303892B09F0DBC0809162009091630073
:1008C0004E9774F2DFC084E090E00E9454031092CF
:1008D00067001092660008C083E090E00E94540315
:1008E00010926700109266001092630010926200EE
:1008F00004C010926700109266002FEF82E597E027
:10090000215080409040E1F700C0000080916800D5
:1009100090916900892B09F032CF949A0E9484004B
:100920008EEA90E00E94DE00909369008093680058
:100930008091660090916700019709F020CFAB98F5
:100940000E9484008EEA90E00E94DE0029B72160B8
:1009500029BF892B09F09AC08091620090916300B1
:100960004E970CF09EC08EEA90E00E94DE00892B2C
:1009700009F08CC080916200909163004E979CF3C7
:1009800090C0009364001093650010926300109271
:1009900062008091640090916500019709F453C052
:1009A00089B7816089BF80916200909163004E9702
:1009B0000CF086C066E470E086EB90E00E943E009A
:1009C0006EE670E086EB90E00E9473036CE370E0EB
:1009D00086EB90E00E94DB010E94840064E570E0F9
:1009E0008CEF90E00E943E0040E06CE370E08CEF02
:1009F00090E00E94DA024CE350E06CEF70E086EB8E
:100A000090E00E948303892B09F04FC0809162001F
:100A1000909163004E9774F253C084E090E00E947E
:100A20005403109267001092660008C083E090E0C3
:100A30000E945403109267001092660010926300A7
:100A4000109262009CCE109267001092660097CEC2
:100A500089B78E7F89BF80916200909163004E9725
:100A60000CF0E5CEE8CE89B78E7F89BFE0CE89B79E
:100A70008E7F89BF80916200909163004E970CF049
:100A800022CF2ACF89B78E7F89BF1DCF89B78E7FAE
:100A900089BF80916200909163004E970CF071CFF6
:100AA00074CF89B78E7F89BF6CCF89B78E7F89BF9E
:100AB00080916200909163004E970CF0AECFB6CF5C
:100AC00089B78E7F89BFA9CF1F920F920FB60F9261
:100AD00011242F938F939F93EF93FF938091600046
:100AE000909161002CB1FC01E259FF4F20832A3024
:100AF00071F48C3391055CF081E090E09093670095
:100B000080936600109261001092600005C001960B
:100B10009093610080936000FF91EF919F918F917E
:100B20002F910F900FBE0F901F9018951F920F924C
:100B30000FB60F9211242F933F934F935F936F93B0
:100B40007F938F939F93AF93BF93EF93FF93809186
:100B50006A0090916B00A0916C00B0916D000196BD
:100B6000A11DB11D80936A0090936B00A0936C004F
:100B7000B0936D008C329140A105B105C9F481E0BC
:100B800090E00E94540395B388E0892785BB1092BA
:100B90006A0010926B0010926C0010926D008091B0
:100BA00062009091630001969093630080936200CD
:100BB00083E882BFFF91EF91BF91AF919F918F9199
:100BC0007F916F915F914F913F912F910F900FBE49
:0A0BD0000F901F901895F894FFCFC6
:00000001FF
